{
  "jsonrpc": "2.0",
  "id": 1,
  "result": {
      "difficulty": "0x2",
      "extraData": "0xd98301090a846765746889676f312e31352e3133856c696e75780000000000009c3827892825f0825a7e329b6913b84c9e4f89168350aff0939e0e6609629f2e7f07f2aeb62acbf4b16a739cab68866f4880ea406583a4b28a59d4f55dc2314e00",
      "gasLimit": "0xe4e1c0",
      "gasUsed": "0x3183d",
      "hash": "0xbee7192e575af30420cae0c7776304ac196077ee72b048970549e4f08e875453",
      "logsBloom": "0x00000000000000000000000000000000000000000000000000000000008000000000000000000000000000000000000000000000000000000000400000000000100000000000000200000000002000000000000001000000000000000000004000000000000000000000000000040000400000100400000000000000100000000000000000000000000000020000000000000000000000000000000000000000000000001000000000000000000000100000000000000000000000000000000000000000000000000000000000000088000000080000000000010000000000000000000000000000800008000120000000000000000000000000000000002000",
      "miner": "0x0000000000000000000000000000000000000000",
      "mixHash": "0x0000000000000000000000000000000000000000000000000000000000000000",
      "nonce": "0x0000000000000000",
      "number": "0x1",
      "parentHash": "0x7ca38a1916c42007829c55e69d3e9a73265554b586a499015373241b8a3fa48b",
      "receiptsRoot": "0xf4c97b1186b690ad3318f907c0cdaf46f4598f27f711a5609064b2690a767287",
      "sha3Uncles": "0x1dcc4de8dec75d7aab85b567b6ccd41ad312451b948a7413f0a142fd40d49347",
      "size": "0x30c",
      "stateRoot": "0xd3ac40854cd2ac17d8effeae6065cea990b04be714f7061544973feeb2f1c95f",
      "timestamp": "0x618d8837",
      "totalDifficulty": "0x3",
      "transactions": [
          {
              "blockHash": "0xbee7192e575af30420cae0c7776304ac196077ee72b048970549e4f08e875453",
              "blockNumber": "0x1",
              "from": "0x70b17c0fe982ab4a7ac17a4c25485643151a1f2d",
              "gas": "0x7a120",
              "gasPrice": "0x1",
              "hash": "0x5e77a04531c7c107af1882d76cbff9486d0a9aa53701c30888509d4f5f2b003a",
              "input": "0x202ee0ed000000000000000000000000000000000000000000000000000000000001421800000000000000000000000000000000000000000000000000000000d0e3ebf0",
              "nonce": "0x28972",
              "to": "0x8ce8c13d816fe6daf12d6fd9e4952e1fc88850af",
              "transactionIndex": "0x0",
              "value": "0x0",
              "v": "0x38",
              "r": "0xc878d22e771004beb73e7a4268fd4f447735812b94b217f6807412efcec90d61",
              "s": "0x3588018735fb361c49e5de54b266b8b157c1ba3d6ee08e3bcbdee7cd725c16e8",
              "queueOrigin": "sequencer",
              "l1TxOrigin": null,
              "l1BlockNumber": "0xcf7a45",
              "l1Timestamp": "0x618d8837",
              "index": "0x0",
              "queueIndex": null,
              "rawTransaction": "0xf8a883028972018307a120948ce8c13d816fe6daf12d6fd9e4952e1fc88850af80b844202ee0ed000000000000000000000000000000000000000000000000000000000001421800000000000000000000000000000000000000000000000000000000d0e3ebf038a0c878d22e771004beb73e7a4268fd4f447735812b94b217f6807412efcec90d61a03588018735fb361c49e5de54b266b8b157c1ba3d6ee08e3bcbdee7cd725c16e8"
          }
      ],
      "transactionsRoot": "0x19f5efd0d94386e72fcb3f296f1cb2936d017c37487982f76f09c591129f561f",
      "uncles": []
  }
}
